:100000000C9434000C9451000C9451000C94510049
:100010000C9485000C9451000C9451000C945100E8
:100020000C9451000C9451000C9451000C9451000C
:100030000C9451000C9451000C9451000C945100FC
:100040000C9451000C9451000C9451000C945100EC
:100050000C9451000C9451000C9451000C945100DC
:100060000C9451000C94510011241FBECFEFD8E026
:10007000DEBFCDBF11E0A0E0B1E0E8E2FBE002C0EE
:1000800005900D92A033B107D9F721E0A0E3B1E0CC
:1000900001C01D92A933B207E1F70E948B010C94B5
:1000A00092050C94000005966AE070E00E944402FC
:1000B0006150710908F4089585E38A95F1F700000D
:1000C000F7CF0F931F93CF93DF93EC019C0150E088
:1000D00040E060E472E48FE090E00E945802890101
:1000E0009A013695279517950795219728F4DF9162
:1000F000CF911F910F9108952C9AC8010E9453002F
:100100002C98C8010E945300F0CF1F920F920FB697
:100110000F9211248F939F9386B1982F9270909392
:10012000330180728093380180913401811134C091
:1001300080913301811124C080913801882301F11D
:1001400081E08093350180913601909137010196CD
:10015000909337018093360190913501809134015D
:10016000981739F081E080933201809135018093B6
:1001700034019F918F910F900FBE0F901F90189593
:1001800080913301882341F3809138018111E4CFBC
:1001900083E08093350118C0809134018130D1F41F
:1001A00080913301882331F080913801882311F048
:1001B00082E0C7CF809133018111CECF8091380189
:1001C0008111CACF1092350180913601909137018B
:1001D0000197BECF80913401823089F4809138013B
:1001E000811102C083E0ADCF809133018111B4CF82
:1001F00080913801882309F4AFCF81E0CACF809184
:100200003301811107C080913801811103C0109220
:10021000350199CF80913301882309F49DCF8091D6
:100220003801882309F498CF82E0B3CF9BB19F7047
:100230009BB99BB1807F892B8BB9299A299A2998E0
:100240000895CF93C82F2898807F0E9416018C2F85
:100250008295807F0E9416018FE39FE10197F1F75D
:1002600000C00000CF910895811104C080E8860F7E
:100270000C94210180ECFBCF84B1836084B98AB1F6
:10028000806F8AB98FE59AEE0197F1F700C0000000
:1002900080E30E9416018FE19EE40197F1F700C010
:1002A000000080E30E9416018FED91E00197F1F7C5
:1002B00000C0000080E30E94160180E20E94160147
:1002C0008FE39FE10197F1F700C0000088E20E94F0
:1002D00021018FE00C942101CF93C82F289A807FB1
:1002E0000E9416018C2F8295807F0E9416018FE359
:1002F0009FE10197F1F700C00000CF910895CF93DF
:10030000DF93EC018991811103C0DF91CF910895B2
:100310000E946C01F7CFCF93DF93CDB7DEB72F9755
:100320000FB6F894DEBF0FBECDBF249A419A459A0E
:100330000E943C01809168008260809368008091F7
:100340006C00826080936C0080916C00806280936E
:100350006C00789481E00E94210160E080E00E94BE
:10036000340180E191E00E947F0160E081E00E9421
:10037000340180E291E00E947F012FEF33ED80E3B2
:10038000215030408040E1F700C0000081E00E9431
:10039000210186B182708093330186B1807280938F
:1003A000380180913301811157C08091380181114A
:1003B00053C01092340180913401809335010CE2D6
:1003C00011E09FE0D92E9E012F5F3F4F7901809170
:1003D00032018823E1F31092320181E00E94210171
:1003E00080913601909137019F938F931F930F93C4
:1003F0001F92DF92FF92EF920E94AD02C7010E940E
:100400007F018091360190913701877099270FB64F
:10041000F894DEBF0FBECDBF892BC9F6E09136013F
:10042000F0913701F7FF03C0F195E195F109F695D9
:10043000E795F695E795EE70FF27E050FF4F808136
:1004400091810E94610080913601909137019093D3
:10045000310180933001BBCF80913301811108C0FD
:1004600080913801882321F081E080933401A3CF6B
:1004700080913301882331F080913801811102C0CD
:1004800082E0F3CF83E0F1CF97FB072E16F40094C0
:1004900007D077FD09D00E94770207FC05D03EF413
:1004A000909581959F4F0895709561957F4F089520
:1004B000052E97FB1EF400940E946F0257FD07D093
:1004C0000E948B0207FC03D04EF40C946F025095EF
:1004D0004095309521953F4F4F4F5F4F0895909530
:1004E0008095709561957F4F8F4F9F4F0895AA1B00
:1004F000BB1B51E107C0AA1FBB1FA617B70710F00F
:10050000A61BB70B881F991F5A95A9F78095909540
:10051000BC01CD010895A1E21A2EAA1BBB1BFD014F
:100520000DC0AA1FBB1FEE1FFF1FA217B307E407D2
:10053000F50720F0A21BB30BE40BF50B661F771F2A
:10054000881F991F1A9469F760957095809590950A
:100550009B01AC01BD01CF010895AEE0B0E0E3EB3B
:10056000F2E00C9469050D891E898F89988D26E02B
:100570002C831A83098397FF02C080E090E80197DB
:100580009E838D83AE01455E5F4F698D7A8DCE016E
:1005900001960E94DD024D815E8157FD0AC02F81C8
:1005A0003885421753070CF49A01020F131FF80104
:1005B00010822E96E4E00C948505ABE0B0E0E3EE0B
:1005C000F2E00C945B057C013B018A01FC0117827F
:1005D0001682838181FFC8C1CE0101965C01F701BB
:1005E0009381F30193FD859193FF81913F018823CE
:1005F00009F453C1853239F493FD859193FF8191BC
:100600003F01853229F4B70190E00E94CD04E7CF85
:10061000912C212C312CFFE1F31538F08B3211F1A4
:1006200090F4803209F1833229F137FC3CC020ED8F
:10063000280F2A3050F536FE20C08AE0989E200D03
:100640001124922E06C08D3291F0803371F7689498
:1006500030F8F30193FD859193FF81913F01811162
:10066000DACF21C0689431F8689432F8F2CF6894F8
:1006700033F8EFCF689434F8ECCFEAE02E9E200DEB
:100680001124222E689435F8E4CF8E3229F436FCFA
:1006900004C1689436F8DDCF8C3619F4689437F8C5
:1006A000D8CF8836B1F2982F9F7D95549330E0F0E3
:1006B0008336A1F18337C1F1833509F063C0280186
:1006C000F2E04F0E511CF801C080D180692D70E01E
:1006D00036FC02C06FEF7FEFC6010E94B7044C01E9
:1006E000689437F882010AC00C5F1F4FFFE3F9835B
:1006F00088248394912C6501E89437F833FE2DC04B
:10070000522C8114910471F5552009F468CFB7017A
:1007100080E290E00E94CD045A94F6CFF8018081E7
:1007200089830E5F1F4FE4CF2801F2E04F0E511C6A
:10073000F801C080D180692D70E036FC02C06FEFF7
:100740007FEFC6010E94C2044C018201D5CFB701E0
:1007500080E290E00E94CD042A942814190409F044
:10076000B0F7CECFF60137FC859137FE81916F014E
:10077000B70190E00E94CD0451105A94F1E08F1A15
:100780009108BFCF843619F0893609F077C0F80197
:1007900037FE6BC060817181828193810C5F1F4F36
:1007A000F32DFF763F2E97FF09C0909580957095A9
:1007B00061957F4F8F4F9F4F689437F82AE030E064
:1007C000A5010E94FD04C82ECA188C2C432C36FEAD
:1007D0000CC0E89440F8C91440F434FE05C032FC63
:1007E00003C0F32DFE7E4F2E892C44FE95C0FE01E2
:1007F000EC0DF11D8081803309F087C0242D297E06
:10080000422E842D8870582E43FC95C040FE8FC028
:100810009C2C821418F42C0C922C981844FE91C035
:10082000B70180E390E00E94CD0442FE09C088E752
:1008300090E041FE02C088E590E0B7010E94CD043F
:10084000C91408F48AC0CA94D12C9FEFC91AD90AD6
:10085000CA0CDB1CF60182916F01B70190E00E9487
:10086000CD04AC14BD04B1F74FCF60817181072E68
:10087000000C880B990B0E5F1F4F92CFD32CE8947E
:10088000D4F82AE030E0853739F1232D297FD22EA4
:100890008F3601F148F48835A9F0F70186819781F8
:1008A0002B96E2E10C947705803749F08837A9F759
:1008B000D4FE02C06894D2F820E130E00DC0689404
:1008C000D4F8F6CF34FE03C0822F8660D82E20E104
:1008D00032E002C028E030E0F801D7FE0FC06081AE
:1008E0007181828193810C5F1F4FA5010E94FD04DD
:1008F000C82ECA183D2CE89437F867CF6081718103
:1009000090E080E00E5F1F4FF0CF42FC02C0839466
:1009100078CF8394839475CF842D867809F471CF32
:10092000F6CFB70180E290E00E94CD048394821458
:10093000C0F3512C73CF522C5818821408F46ECF88
:10094000F8CF842D867809F47BCF8BE241FE80E2DC
:1009500047FC8DE2B70190E071CFB70180E390E0F2
:100960000E94CD049A946CCF8FEF9FEF99CFFC013A
:100970000590615070400110D8F7809590958E0FCA
:100980009F1F0895FC016150704001900110D8F73D
:10099000809590958E0F9F1F08950F931F93CF936F
:1009A000DF93182F092FEB018B8181FD09C01FEF09
:1009B0000FEF812F902FDF91CF911F910F9108950D
:1009C00082FF14C02E813F818C819D8128173907B9
:1009D0003CF4E881F981CF010196998388831083E3
:1009E0008E819F8101969F838E83E3CFE885F98571
:1009F000812F0995892BA1F3DACFFA01AA27283094
:100A000051F1203181F1E8946F936E7F6E5F7F4FDB
:100A10008F4F9F4FAF4FB1E03ED0B4E03CD0670F57
:100A2000781F891F9A1FA11D680F791F8A1F911DAA
:100A3000A11D6A0F711D811D911DA11D20D009F4FA
:100A400068943F912AE0269F11243019305D31933C
:100A5000DEF6CF010895462F4770405D4193B3E025
:100A60000FD0C9F7F6CF462F4F70405D4A3318F0CC
:100A7000495D31FD4052419302D0A9F7EACFB4E07D
:100A8000A6959795879577956795BA95C9F7009735
:100A90006105710508959B01AC010A2E06945795D6
:100AA000479537952795BA95C9F7620F731F841F2D
:100AB000951FA01D08952F923F924F925F926F92C3
:100AC0007F928F929F92AF92BF92CF92DF92EF92DE
:100AD000FF920F931F93CF93DF93CDB7DEB7CA1B5F
:100AE000DB0B0FB6F894DEBF0FBECDBF09942A888A
:100AF000398848885F846E847D848C849B84AA8432
:100B0000B984C884DF80EE80FD800C811B81AA81BE
:100B1000B981CE0FD11D0FB6F894DEBF0FBECDBF89
:080B2000ED010895F894FFCFE8
:100B2800060126014A015D018801B801EE010B02A8
:100B38004D617474686961732057656173657200EB
:100B48004545313039204C6162203700256400006A
:00000001FF
