:100000000C9434000C9451000C9451000C94510049
:100010000C9453000C9451000C9451000C9451001A
:100020000C9451000C9451000C9451000C9451000C
:100030000C9451000C9451000C9451000C945100FC
:100040000C9451000C9451000C9451000C945100EC
:100050000C9451000C9451000C9451000C945100DC
:100060000C9451000C94510011241FBECFEFD8E026
:10007000DEBFCDBF11E0A0E0B1E0EAE1F9E002C0EF
:1000800005900D92A032B107D9F721E0A0E2B1E0CE
:1000900001C01D92AE33B207E1F70E9424010C9417
:1000A0008B040C9400001F920F920FB60F92112434
:1000B0008F939F9386B181FB992790F990933D018F
:1000C00085FB882780F98093200180913A01811176
:1000D0000CC080913D01882311F081E016C0809111
:1000E0002001882309F182E010C080913A0181301B
:1000F00079F480913D01811103C010923B0114C03D
:1001000080912001882381F083E080933B010CC023
:1001100080913A018230E1F480913D018111F4CF68
:1001200080912001882349F390913B0180913A010D
:10013000981739F081E080933C0180913B018093D6
:100140003A019F918F910F900FBE0F901F901895BD
:1001500080913D01882339F2809120018111E4CF03
:10016000BCCF9BB19F709BB99BB1807F892B8BB912
:10017000299A299A29980895CF93C82F28980E94E0
:10018000B1008C2F8295807F0E94B1008FE39FE1A8
:100190000197F1F700C00000CF910895811104C0CC
:1001A00080E8860F0C94BC0080ECFBCF8AB1806F96
:1001B0008AB984B1836084B98FE59AEE0197F1F72B
:1001C00000C0000080E30E94B1008FE19EE401972F
:1001D000F1F700C0000080E30E94B1008FED91E0D4
:1001E0000197F1F700C0000080E30E94B10080E2B7
:1001F0000E94B1008FE39FE10197F1F700C000007A
:1002000088E20E94BC008FE00C94BC00CF93C82F02
:10021000289A0E94B1008C2F8295807F0E94B100A5
:100220008FE39FE10197F1F700C00000CF9108959F
:10023000CF93DF93EC018991811103C0DF91CF91BE
:1002400008950E940601F7CF88B1826288B98FE9CC
:100250009FE00197F1F700C0000080916800826084
:100260008093680080916C00826280936C00789427
:100270000E94D60081E00E94BC0080E091E00E94D4
:10028000180186B181FB992790F990933D0185FB78
:10029000882780F9809320018091200181113EC040
:1002A00080913D0181113AC010923A0180913A014A
:1002B00080933B0181E080933C010DE011E089E1F6
:1002C000F82EC1E2D1E080913C018823E1F3109245
:1002D0003C0120913A0190913D01809120011F92B3
:1002E0002F931F929F931F928F931F930F931F9291
:1002F000FF92DF93CF930E94A60160E081E00E940D
:10030000CE0081E291E00E9418018DB79EB70C9655
:100310000FB6F8949EBF0FBE8DBFD5CF8091200140
:10032000811108C080913D01882321F081E08093F4
:100330003A01BCCF80912001882331F080913D01AA
:10034000811102C082E0F3CF83E0F1CFAEE0B0E0F4
:10035000ECEAF1E00C9462040D891E898F89988D76
:1003600026E02C831A83098397FF02C080E090E87F
:1003700001979E838D83AE01455E5F4F698D7A8DB7
:10038000CE0101960E94D6014D815E8157FD0AC0C3
:100390002F813885421753070CF49A01020F131F5F
:1003A000F80110822E96E4E00C947E04ABE0B0E0FD
:1003B000ECEDF1E00C9454047C013B018A01FC015A
:1003C00017821682838181FFC8C1CE0101965C012C
:1003D000F7019381F30193FD859193FF81913F0193
:1003E000882309F453C1853239F493FD859193FF35
:1003F00081913F01853229F4B70190E00E94C60344
:10040000E7CF912C212C312CFFE1F31538F08B3202
:1004100011F190F4803209F1833229F137FC3CC0AC
:1004200020ED280F2A3050F536FE20C08AE0989E35
:10043000200D1124922E06C08D3291F0803371F779
:10044000689430F8F30193FD859193FF81913F010A
:100450008111DACF21C0689431F8689432F8F2CF74
:10046000689433F8EFCF689434F8ECCFEAE02E9E2E
:10047000200D1124222E689435F8E4CF8E3229F411
:1004800036FC04C1689436F8DDCF8C3619F46894D4
:1004900037F8D8CF8836B1F2982F9F7D9554933096
:1004A000E0F08336A1F18337C1F1833509F063C0F1
:1004B0002801F2E04F0E511CF801C080D180692D57
:1004C00070E036FC02C06FEF7FEFC6010E94B00300
:1004D0004C01689437F882010AC00C5F1F4FFFE39C
:1004E000F98388248394912C6501E89437F833FECE
:1004F0002DC0522C8114910471F5552009F468CF58
:10050000B70180E290E00E94C6035A94F6CFF8014A
:10051000808189830E5F1F4FE4CF2801F2E04F0EE8
:10052000511CF801C080D180692D70E036FC02C0FA
:100530006FEF7FEFC6010E94BB034C018201D5CF54
:10054000B70180E290E00E94C6032A94281419049F
:1005500009F0B0F7CECFF60137FC859137FE8191D7
:100560006F01B70190E00E94C60351105A94F1E068
:100570008F1A9108BFCF843619F0893609F077C0F9
:10058000F80137FE6BC060817181828193810C5FBD
:100590001F4FF32DFF763F2E97FF09C09095809552
:1005A000709561957F4F8F4F9F4F689437F82AE081
:1005B00030E0A5010E94F603C82ECA188C2C432CEB
:1005C00036FE0CC0E89440F8C91440F434FE05C06F
:1005D00032FC03C0F32DFE7E4F2E892C44FE95C0C5
:1005E000FE01EC0DF11D8081803309F087C0242DC0
:1005F000297E422E842D8870582E43FC95C040FEE3
:100600008FC09C2C821418F42C0C922C981844FE49
:1006100091C0B70180E390E00E94C60342FE09C08A
:1006200088E790E041FE02C088E590E0B7010E94B3
:10063000C603C91408F48AC0CA94D12C9FEFC91A02
:10064000D90ACA0CDB1CF60182916F01B70190E058
:100650000E94C603AC14BD04B1F74FCF6081718115
:10066000072E000C880B990B0E5F1F4F92CFD32CD7
:10067000E894D4F82AE030E0853739F1232D297F3A
:10068000D22E8F3601F148F48835A9F0F701868122
:1006900097812B96E2E10C947004803749F08837FB
:1006A000A9F7D4FE02C06894D2F820E130E00DC072
:1006B0006894D4F8F6CF34FE03C0822F8660D82E1B
:1006C00020E132E002C028E030E0F801D7FE0FC0A0
:1006D00060817181828193810C5F1F4FA5010E940F
:1006E000F603C82ECA183D2CE89437F867CF60810E
:1006F000718190E080E00E5F1F4FF0CF42FC02C09E
:10070000839478CF8394839475CF842D867809F46D
:1007100071CFF6CFB70180E290E00E94C6038394C8
:100720008214C0F3512C73CF522C5818821408F441
:100730006ECFF8CF842D867809F47BCF8BE241FE13
:1007400080E247FC8DE2B70190E071CFB70180E312
:1007500090E00E94C6039A946CCF8FEF9FEF99CFE1
:10076000FC010590615070400110D8F7809590957C
:100770008E0F9F1F0895FC01615070400190011081
:10078000D8F7809590958E0F9F1F08950F931F9314
:10079000CF93DF93182F092FEB018B8181FD09C0C7
:1007A0001FEF0FEF812F902FDF91CF911F910F91AE
:1007B000089582FF14C02E813F818C819D8128176E
:1007C00039073CF4E881F981CF0101969983888348
:1007D00010838E819F8101969F838E83E3CFE8856E
:1007E000F985812F0995892BA1F3DACFFA01AA2780
:1007F000283051F1203181F1E8946F936E7F6E5F64
:100800007F4F8F4F9F4FAF4FB1E03ED0B4E03CD011
:10081000670F781F891F9A1FA11D680F791F8A1FF4
:10082000911DA11D6A0F711D811D911DA11D20D05B
:1008300009F468943F912AE0269F11243019305D15
:100840003193DEF6CF010895462F4770405D419306
:10085000B3E00FD0C9F7F6CF462F4F70405D4A3353
:1008600018F0495D31FD4052419302D0A9F7EACF1B
:10087000B4E0A6959795879577956795BA95C9F74A
:1008800000976105710508959B01AC010A2E06943D
:100890005795479537952795BA95C9F7620F731FF6
:1008A000841F951FA01D08952F923F924F925F9233
:1008B0006F927F928F929F92AF92BF92CF92DF9270
:1008C000EF92FF920F931F93CF93DF93CDB7DEB7D5
:1008D000CA1BDB0B0FB6F894DEBF0FBECDBF099469
:1008E0002A88398848885F846E847D848C849B84C0
:1008F000AA84B984C884DF80EE80FD800C811B81CE
:10090000AA81B981CE0FD11D0FB6F894DEBF0FBEFC
:0A091000CDBFED010895F894FFCF6C
:10091A00456E636F646572205465737400423D25A9
:10092A006420413D25642053746174653D2564004B
:00000001FF
